{
  "_format": "hh-sol-artifact-1",
  "contractName": "Transactions",
  "sourceName": "contracts/Transactions.sol",
  "abi": [
    {
      "inputs": [],
      "stateMutability": "nonpayable",
      "type": "constructor"
    },
    {
      "inputs": [
        {
          "internalType": "uint256",
          "name": "tokenId",
          "type": "uint256"
        }
      ],
      "name": "BaseURIof",
      "outputs": [
        {
          "internalType": "string",
          "name": "",
          "type": "string"
        }
      ],
      "stateMutability": "view",
      "type": "function"
    },
    {
      "inputs": [
        {
          "internalType": "address",
          "name": "",
          "type": "address"
        }
      ],
      "name": "_balances",
      "outputs": [
        {
          "internalType": "uint256",
          "name": "",
          "type": "uint256"
        }
      ],
      "stateMutability": "view",
      "type": "function"
    },
    {
      "inputs": [
        {
          "internalType": "uint256",
          "name": "",
          "type": "uint256"
        }
      ],
      "name": "_baseURI",
      "outputs": [
        {
          "internalType": "string",
          "name": "",
          "type": "string"
        }
      ],
      "stateMutability": "view",
      "type": "function"
    },
    {
      "inputs": [
        {
          "internalType": "uint256",
          "name": "tokenId",
          "type": "uint256"
        }
      ],
      "name": "_ownerOf",
      "outputs": [
        {
          "internalType": "address",
          "name": "",
          "type": "address"
        }
      ],
      "stateMutability": "view",
      "type": "function"
    },
    {
      "inputs": [
        {
          "internalType": "uint256",
          "name": "",
          "type": "uint256"
        }
      ],
      "name": "_owners",
      "outputs": [
        {
          "internalType": "address",
          "name": "",
          "type": "address"
        }
      ],
      "stateMutability": "view",
      "type": "function"
    },
    {
      "inputs": [
        {
          "internalType": "address",
          "name": "owner",
          "type": "address"
        }
      ],
      "name": "balanceOf",
      "outputs": [
        {
          "internalType": "uint256",
          "name": "",
          "type": "uint256"
        }
      ],
      "stateMutability": "view",
      "type": "function"
    },
    {
      "inputs": [],
      "name": "contractAddress",
      "outputs": [
        {
          "internalType": "address",
          "name": "",
          "type": "address"
        }
      ],
      "stateMutability": "view",
      "type": "function"
    },
    {
      "inputs": [
        {
          "internalType": "uint256",
          "name": "tokenId",
          "type": "uint256"
        }
      ],
      "name": "exists",
      "outputs": [
        {
          "internalType": "bool",
          "name": "",
          "type": "bool"
        }
      ],
      "stateMutability": "view",
      "type": "function"
    },
    {
      "inputs": [
        {
          "internalType": "address",
          "name": "to",
          "type": "address"
        },
        {
          "internalType": "uint256",
          "name": "tokenId",
          "type": "uint256"
        },
        {
          "internalType": "string",
          "name": "path",
          "type": "string"
        }
      ],
      "name": "mint",
      "outputs": [],
      "stateMutability": "payable",
      "type": "function"
    },
    {
      "inputs": [],
      "name": "mintedTokensSum",
      "outputs": [
        {
          "internalType": "uint256",
          "name": "",
          "type": "uint256"
        }
      ],
      "stateMutability": "view",
      "type": "function"
    },
    {
      "inputs": [
        {
          "internalType": "uint256",
          "name": "tokenId",
          "type": "uint256"
        }
      ],
      "name": "ownerOf",
      "outputs": [
        {
          "internalType": "address",
          "name": "",
          "type": "address"
        }
      ],
      "stateMutability": "view",
      "type": "function"
    }
  ],
  "bytecode": "0x6080604052600060055534801561001557600080fd5b50336000806101000a81548173ffffffffffffffffffffffffffffffffffffffff021916908373ffffffffffffffffffffffffffffffffffffffff1602179055506100646100a960201b60201c565b600160006101000a81548173ffffffffffffffffffffffffffffffffffffffff021916908373ffffffffffffffffffffffffffffffffffffffff1602179055506100b6565b6000803090508091505090565b610e78806100c56000396000f3fe60806040526004361061009c5760003560e01c806370a082311161006457806370a08231146101d2578063992924a61461020f578063bee348a41461024c578063d3fc986414610277578063d5df7d3314610293578063f6b4dfb4146102d05761009c565b806338350541146100a15780634f558e79146100de578063561cc9f21461011b5780636352211e146101585780636ebcf60714610195575b600080fd5b3480156100ad57600080fd5b506100c860048036038101906100c3919061099f565b6102fb565b6040516100d59190610b14565b60405180910390f35b3480156100ea57600080fd5b506101056004803603810190610100919061099f565b610338565b6040516101129190610b2f565b60405180910390f35b34801561012757600080fd5b50610142600480360381019061013d919061099f565b610379565b60405161014f9190610b4a565b60405180910390f35b34801561016457600080fd5b5061017f600480360381019061017a919061099f565b61041e565b60405161018c9190610b14565b60405180910390f35b3480156101a157600080fd5b506101bc60048036038101906101b7919061090f565b6104d0565b6040516101c99190610bcc565b60405180910390f35b3480156101de57600080fd5b506101f960048036038101906101f4919061090f565b6104e8565b6040516102069190610bcc565b60405180910390f35b34801561021b57600080fd5b506102366004803603810190610231919061099f565b6105a6565b6040516102439190610b14565b60405180910390f35b34801561025857600080fd5b506102616105d9565b60405161026e9190610bcc565b60405180910390f35b610291600480360381019061028c9190610938565b6105df565b005b34801561029f57600080fd5b506102ba60048036038101906102b5919061099f565b610701565b6040516102c79190610b4a565b60405180910390f35b3480156102dc57600080fd5b506102e56107a1565b6040516102f29190610b14565b60405180910390f35b60006002600083815260200190815260200160002060009054906101000a900473ffffffffffffffffffffffffffffffffffffffff169050919050565b60008073ffffffffffffffffffffffffffffffffffffffff1661035a836102fb565b73ffffffffffffffffffffffffffffffffffffffff1614159050919050565b606060046000838152602001908152602001600020805461039990610d44565b80601f01602080910402602001604051908101604052809291908181526020018280546103c590610d44565b80156104125780601f106103e757610100808354040283529160200191610412565b820191906000526020600020905b8154815290600101906020018083116103f557829003601f168201915b50505050509050919050565b6000806002600084815260200190815260200160002060009054906101000a900473ffffffffffffffffffffffffffffffffffffffff169050600073ffffffffffffffffffffffffffffffffffffffff168173ffffffffffffffffffffffffffffffffffffffff1614156104c7576040517f08c379a00000000000000000000000000000000000000000000000000000000081526004016104be90610bac565b60405180910390fd5b80915050919050565b60036020528060005260406000206000915090505481565b600080600360008473ffffffffffffffffffffffffffffffffffffffff1673ffffffffffffffffffffffffffffffffffffffff168152602001908152602001600020549050600073ffffffffffffffffffffffffffffffffffffffff168373ffffffffffffffffffffffffffffffffffffffff16141561059d576040517f08c379a000000000000000000000000000000000000000000000000000000000815260040161059490610b8c565b60405180910390fd5b80915050919050565b60026020528060005260406000206000915054906101000a900473ffffffffffffffffffffffffffffffffffffffff1681565b60055481565b600115156105ec83610338565b1515141561062f576040517f08c379a000000000000000000000000000000000000000000000000000000000815260040161062690610b6c565b60405180910390fd5b6001600360008573ffffffffffffffffffffffffffffffffffffffff1673ffffffffffffffffffffffffffffffffffffffff168152602001908152602001600020600082825461067f9190610c64565b925050819055506001600560008282546106999190610c64565b92505081905550826002600084815260200190815260200160002060006101000a81548173ffffffffffffffffffffffffffffffffffffffff021916908373ffffffffffffffffffffffffffffffffffffffff1602179055506106fc82826107ae565b505050565b6004602052806000526040600020600091509050805461072090610d44565b80601f016020809104026020016040519081016040528092919081815260200182805461074c90610d44565b80156107995780601f1061076e57610100808354040283529160200191610799565b820191906000526020600020905b81548152906001019060200180831161077c57829003601f168201915b505050505081565b6000803090508091505090565b806004600084815260200190815260200160002090805190602001906107d59291906107da565b505050565b8280546107e690610d44565b90600052602060002090601f016020900481019282610808576000855561084f565b82601f1061082157805160ff191683800117855561084f565b8280016001018555821561084f579182015b8281111561084e578251825591602001919060010190610833565b5b50905061085c9190610860565b5090565b5b80821115610879576000816000905550600101610861565b5090565b600061089061088b84610c18565b610be7565b9050828152602081018484840111156108a857600080fd5b6108b3848285610d02565b509392505050565b6000813590506108ca81610e14565b92915050565b600082601f8301126108e157600080fd5b81356108f184826020860161087d565b91505092915050565b60008135905061090981610e2b565b92915050565b60006020828403121561092157600080fd5b600061092f848285016108bb565b91505092915050565b60008060006060848603121561094d57600080fd5b600061095b868287016108bb565b935050602061096c868287016108fa565b925050604084013567ffffffffffffffff81111561098957600080fd5b610995868287016108d0565b9150509250925092565b6000602082840312156109b157600080fd5b60006109bf848285016108fa565b91505092915050565b6109d181610cba565b82525050565b6109e081610ccc565b82525050565b60006109f182610c48565b6109fb8185610c53565b9350610a0b818560208601610d11565b610a1481610e03565b840191505092915050565b6000610a2c601583610c53565b91507f546f6b656e494420616c726561647920657869737400000000000000000000006000830152602082019050919050565b6000610a6c602983610c53565b91507f4552433732313a2061646472657373207a65726f206973206e6f74206120766160008301527f6c6964206f776e657200000000000000000000000000000000000000000000006020830152604082019050919050565b6000610ad2601883610c53565b91507f4552433732313a20696e76616c696420746f6b656e20494400000000000000006000830152602082019050919050565b610b0e81610cf8565b82525050565b6000602082019050610b2960008301846109c8565b92915050565b6000602082019050610b4460008301846109d7565b92915050565b60006020820190508181036000830152610b6481846109e6565b905092915050565b60006020820190508181036000830152610b8581610a1f565b9050919050565b60006020820190508181036000830152610ba581610a5f565b9050919050565b60006020820190508181036000830152610bc581610ac5565b9050919050565b6000602082019050610be16000830184610b05565b92915050565b6000604051905081810181811067ffffffffffffffff82111715610c0e57610c0d610dd4565b5b8060405250919050565b600067ffffffffffffffff821115610c3357610c32610dd4565b5b601f19601f8301169050602081019050919050565b600081519050919050565b600082825260208201905092915050565b6000610c6f82610cf8565b9150610c7a83610cf8565b9250827fffffffffffffffffffffffffffffffffffffffffffffffffffffffffffffffff03821115610caf57610cae610d76565b5b828201905092915050565b6000610cc582610cd8565b9050919050565b60008115159050919050565b600073ffffffffffffffffffffffffffffffffffffffff82169050919050565b6000819050919050565b82818337600083830152505050565b60005b83811015610d2f578082015181840152602081019050610d14565b83811115610d3e576000848401525b50505050565b60006002820490506001821680610d5c57607f821691505b60208210811415610d7057610d6f610da5565b5b50919050565b7f4e487b7100000000000000000000000000000000000000000000000000000000600052601160045260246000fd5b7f4e487b7100000000000000000000000000000000000000000000000000000000600052602260045260246000fd5b7f4e487b7100000000000000000000000000000000000000000000000000000000600052604160045260246000fd5b6000601f19601f8301169050919050565b610e1d81610cba565b8114610e2857600080fd5b50565b610e3481610cf8565b8114610e3f57600080fd5b5056fea264697066735822122026800f82390258f9d66de0a1ea3767c32ea80175bfefc3b801d2402959fda35a64736f6c63430008000033",
  "linkReferences": {},
  "deployedLinkReferences": {}
}